{
  "_format": "hh-sol-artifact-1",
  "contractName": "BattleshipFactory",
  "sourceName": "src/utils/BattleshipFactory.sol",
  "abi": [
    {
      "inputs": [
        {
          "internalType": "contract MerkleTreeValidator",
          "name": "_merkleTreeValidator",
          "type": "address"
        }
      ],
      "stateMutability": "nonpayable",
      "type": "constructor"
    },
    {
      "inputs": [
        {
          "internalType": "bytes32",
          "name": "playerBoardRootHash",
          "type": "bytes32"
        }
      ],
      "name": "createBattleship",
      "outputs": [
        {
          "internalType": "address",
          "name": "",
          "type": "address"
        }
      ],
      "stateMutability": "payable",
      "type": "function"
    },
    {
      "inputs": [
        {
          "internalType": "address",
          "name": "",
          "type": "address"
        },
        {
          "internalType": "uint256",
          "name": "",
          "type": "uint256"
        }
      ],
      "name": "deployedBattleships",
      "outputs": [
        {
          "internalType": "address",
          "name": "",
          "type": "address"
        }
      ],
      "stateMutability": "view",
      "type": "function"
    },
    {
      "inputs": [
        {
          "internalType": "address",
          "name": "player",
          "type": "address"
        }
      ],
      "name": "getDeployedBattleships",
      "outputs": [
        {
          "internalType": "address[]",
          "name": "",
          "type": "address[]"
        }
      ],
      "stateMutability": "view",
      "type": "function"
    },
    {
      "inputs": [],
      "name": "merkleTreeValidator",
      "outputs": [
        {
          "internalType": "contract MerkleTreeValidator",
          "name": "",
          "type": "address"
        }
      ],
      "stateMutability": "view",
      "type": "function"
    }
  ],
  "bytecode": "0x608060405234801561001057600080fd5b5060405161424f38038061424f833981810160405281019061003291906100ee565b80600160006101000a81548173ffffffffffffffffffffffffffffffffffffffff021916908373ffffffffffffffffffffffffffffffffffffffff1602179055505061011b565b600080fd5b600073ffffffffffffffffffffffffffffffffffffffff82169050919050565b60006100a98261007e565b9050919050565b60006100bb8261009e565b9050919050565b6100cb816100b0565b81146100d657600080fd5b50565b6000815190506100e8816100c2565b92915050565b60006020828403121561010457610103610079565b5b6000610112848285016100d9565b91505092915050565b6141258061012a6000396000f3fe608060405260043610620000445760003560e01c806303eb98b81462000049578063281292b5146200008d578063b5958fd314620000d1578063cc6259371462000107575b600080fd5b3480156200005657600080fd5b506200007560048036038101906200006f919062000400565b62000137565b60405162000084919062000500565b60405180910390f35b3480156200009a57600080fd5b50620000b96004803603810190620000b391906200055f565b62000205565b604051620000c89190620005b7565b60405180910390f35b620000ef6004803603810190620000e991906200060f565b62000254565b604051620000fe9190620005b7565b60405180910390f35b3480156200011457600080fd5b506200011f62000362565b6040516200012e9190620006ac565b60405180910390f35b60606000808373ffffffffffffffffffffffffffffffffffffffff1673ffffffffffffffffffffffffffffffffffffffff168152602001908152602001600020805480602002602001604051908101604052809291908181526020018280548015620001f957602002820191906000526020600020905b8160009054906101000a900473ffffffffffffffffffffffffffffffffffffffff1673ffffffffffffffffffffffffffffffffffffffff1681526020019060010190808311620001ae575b50505050509050919050565b600060205281600052604060002081815481106200022257600080fd5b906000526020600020016000915091509054906101000a900473ffffffffffffffffffffffffffffffffffffffff1681565b60008034600160009054906101000a900473ffffffffffffffffffffffffffffffffffffffff1633856040516200028b9062000388565b6200029993929190620006ff565b6040518091039082f0905080158015620002b7573d6000803e3d6000fd5b5090506000803373ffffffffffffffffffffffffffffffffffffffff1673ffffffffffffffffffffffffffffffffffffffff168152602001908152602001600020819080600181540180825580915050600190039060005260206000200160009091909190916101000a81548173ffffffffffffffffffffffffffffffffffffffff021916908373ffffffffffffffffffffffffffffffffffffffff16021790555080915050919050565b600160009054906101000a900473ffffffffffffffffffffffffffffffffffffffff1681565b6139b3806200073d83390190565b600080fd5b600073ffffffffffffffffffffffffffffffffffffffff82169050919050565b6000620003c8826200039b565b9050919050565b620003da81620003bb565b8114620003e657600080fd5b50565b600081359050620003fa81620003cf565b92915050565b60006020828403121562000419576200041862000396565b5b60006200042984828501620003e9565b91505092915050565b600081519050919050565b600082825260208201905092915050565b6000819050602082019050919050565b6200046981620003bb565b82525050565b60006200047d83836200045e565b60208301905092915050565b6000602082019050919050565b6000620004a38262000432565b620004af81856200043d565b9350620004bc836200044e565b8060005b83811015620004f3578151620004d788826200046f565b9750620004e48362000489565b925050600181019050620004c0565b5085935050505092915050565b600060208201905081810360008301526200051c818462000496565b905092915050565b6000819050919050565b620005398162000524565b81146200054557600080fd5b50565b60008135905062000559816200052e565b92915050565b6000806040838503121562000579576200057862000396565b5b60006200058985828601620003e9565b92505060206200059c8582860162000548565b9150509250929050565b620005b181620003bb565b82525050565b6000602082019050620005ce6000830184620005a6565b92915050565b6000819050919050565b620005e981620005d4565b8114620005f557600080fd5b50565b6000813590506200060981620005de565b92915050565b60006020828403121562000628576200062762000396565b5b60006200063884828501620005f8565b91505092915050565b6000819050919050565b60006200066c6200066662000660846200039b565b62000641565b6200039b565b9050919050565b600062000680826200064b565b9050919050565b6000620006948262000673565b9050919050565b620006a68162000687565b82525050565b6000602082019050620006c360008301846200069b565b92915050565b6000620006d6826200039b565b9050919050565b620006e881620006c9565b82525050565b620006f981620005d4565b82525050565b60006060820190506200071660008301866200069b565b620007256020830185620006dd565b620007346040830184620006ee565b94935050505056fe60a0604052604051620039b3380380620039b383398181016040528101906200002991906200069c565b8273ffffffffffffffffffffffffffffffffffffffff1663faf5625f6040518163ffffffff1660e01b8152600401602060405180830381865afa15801562000075573d6000803e3d6000fd5b505050506040513d601f19601f820116820180604052508101906200009b919062000733565b3414620000df576040517f08c379a0000000000000000000000000000000000000000000000000000000008152600401620000d690620007c6565b60405180910390fd5b8273ffffffffffffffffffffffffffffffffffffffff1660808173ffffffffffffffffffffffffffffffffffffffff1681525050816000806101000a81548173ffffffffffffffffffffffffffffffffffffffff021916908373ffffffffffffffffffffffffffffffffffffffff16021790555080600260008060009054906101000a900473ffffffffffffffffffffffffffffffffffffffff1673ffffffffffffffffffffffffffffffffffffffff1673ffffffffffffffffffffffffffffffffffffffff1681526020019081526020016000208190555060805173ffffffffffffffffffffffffffffffffffffffff1663dc4a3e956040518163ffffffff1660e01b8152600401602060405180830381865afa15801562000206573d6000803e3d6000fd5b505050506040513d601f19601f820116820180604052508101906200022c919062000826565b60ff1667ffffffffffffffff8111156200024b576200024a62000858565b5b6040519080825280602002602001820160405280156200027a5781602001602082028036833780820191505090505b50600360008060009054906101000a900473ffffffffffffffffffffffffffffffffffffffff1673ffffffffffffffffffffffffffffffffffffffff1673ffffffffffffffffffffffffffffffffffffffff1681526020019081526020016000209080519060200190620002f092919062000461565b5060805173ffffffffffffffffffffffffffffffffffffffff1663dc4a3e956040518163ffffffff1660e01b8152600401602060405180830381865afa1580156200033f573d6000803e3d6000fd5b505050506040513d601f19601f8201168201806040525081019062000365919062000826565b60ff1667ffffffffffffffff81111562000384576200038362000858565b5b604051908082528060200260200182016040528015620003b35781602001602082028036833780820191505090505b50600460008060009054906101000a900473ffffffffffffffffffffffffffffffffffffffff1673ffffffffffffffffffffffffffffffffffffffff1673ffffffffffffffffffffffffffffffffffffffff168152602001908152602001600020908051906020019062000429929190620004b3565b506000600660156101000a81548160ff0219169083600581111562000453576200045262000887565b5b0217905550505050620008b6565b828054828255906000526020600020908101928215620004a0579160200282015b828111156200049f57825182559160200191906001019062000482565b5b509050620004af919062000560565b5090565b82805482825590600052602060002090601f016020900481019282156200054d5791602002820160005b838211156200051c57835183826101000a81548160ff0219169083151502179055509260200192600101602081600001049283019260010302620004dd565b80156200054b5782816101000a81549060ff02191690556001016020816000010492830192600103026200051c565b505b5090506200055c91906200057f565b5090565b5b808211156200057b57600081600090555060010162000561565b5090565b5b808211156200059a57600081600090555060010162000580565b5090565b600080fd5b600073ffffffffffffffffffffffffffffffffffffffff82169050919050565b6000620005d082620005a3565b9050919050565b6000620005e482620005c3565b9050919050565b620005f681620005d7565b81146200060257600080fd5b50565b6000815190506200061681620005eb565b92915050565b60006200062982620005a3565b9050919050565b6200063b816200061c565b81146200064757600080fd5b50565b6000815190506200065b8162000630565b92915050565b6000819050919050565b620006768162000661565b81146200068257600080fd5b50565b60008151905062000696816200066b565b92915050565b600080600060608486031215620006b857620006b76200059e565b5b6000620006c88682870162000605565b9350506020620006db868287016200064a565b9250506040620006ee8682870162000685565b9150509250925092565b6000819050919050565b6200070d81620006f8565b81146200071957600080fd5b50565b6000815190506200072d8162000702565b92915050565b6000602082840312156200074c576200074b6200059e565b5b60006200075c848285016200071c565b91505092915050565b600082825260208201905092915050565b7f496e76616c6964207374616b656420616d6f756e740000000000000000000000600082015250565b6000620007ae60158362000765565b9150620007bb8262000776565b602082019050919050565b60006020820190508181036000830152620007e1816200079f565b9050919050565b600060ff82169050919050565b6200080081620007e8565b81146200080c57600080fd5b50565b6000815190506200082081620007f5565b92915050565b6000602082840312156200083f576200083e6200059e565b5b60006200084f848285016200080f565b91505092915050565b7f4e487b7100000000000000000000000000000000000000000000000000000000600052604160045260246000fd5b7f4e487b7100000000000000000000000000000000000000000000000000000000600052602160045260246000fd5b6080516130866200092d600039600081816104f0015281816106b2015281816108cc015281816109ab01528181610d6401528181610d9201528181610fcf0152818161115c015281816112d301528181611422015281816117f6015281816119a501528181611e350152611f2001526130866000f3fe6080604052600436106101095760003560e01c806392ee033411610095578063cc787c3811610064578063cc787c381461034a578063cf3fdc1414610373578063d30895e4146103b0578063d9754992146103db578063f8062a5a1461041857610109565b806392ee03341461029b578063b981f29c146102c6578063bbfdc71814610303578063c19d93fb1461031f57610109565b80633a5381b5116100dc5780633a5381b5146101c657806341c02fd8146101f157806359a5f12d1461022e57806370740ac914610259578063906dac1a1461027057610109565b80631999eca81461010e5780631d05e87d146101375780633239faf614610160578063364b4eac1461019d575b600080fd5b34801561011a57600080fd5b506101356004803603810190610130919061218f565b610455565b005b34801561014357600080fd5b5061015e6004803603810190610159919061234b565b610615565b005b34801561016c57600080fd5b5061018760048036038101906101829190612405565b6108c6565b60405161019491906124fc565b60405180910390f35b3480156101a957600080fd5b506101c460048036038101906101bf919061251e565b610b06565b005b3480156101d257600080fd5b506101db610d62565b6040516101e891906125aa565b60405180910390f35b3480156101fd57600080fd5b5061021860048036038101906102139190612405565b610d86565b60405161022591906125d4565b60405180910390f35b34801561023a57600080fd5b50610243610ed2565b6040516102509190612610565b60405180910390f35b34801561026557600080fd5b5061026e610ef8565b005b34801561027c57600080fd5b506102856110c1565b60405161029291906125d4565b60405180910390f35b3480156102a757600080fd5b506102b06110d4565b6040516102bd919061263a565b60405180910390f35b3480156102d257600080fd5b506102ed60048036038101906102e89190612405565b6110fa565b6040516102fa9190612664565b60405180910390f35b61031d6004803603810190610318919061251e565b61111a565b005b34801561032b57600080fd5b506103346115fe565b60405161034191906126f6565b60405180910390f35b34801561035657600080fd5b50610371600480360381019061036c919061280a565b611611565b005b34801561037f57600080fd5b5061039a60048036038101906103959190612882565b611c6e565b6040516103a791906128d1565b60405180910390f35b3480156103bc57600080fd5b506103c5611c9f565b6040516103d29190612610565b60405180910390f35b3480156103e757600080fd5b5061040260048036038101906103fd9190612405565b611cc3565b60405161040f91906128d1565b60405180910390f35b34801561042457600080fd5b5061043f600480360381019061043a9190612882565b611cdb565b60405161044c9190612664565b60405180910390f35b600160058111156104695761046861267f565b5b600660159054906101000a900460ff16600581111561048b5761048a61267f565b5b1480156104e55750600660019054906101000a900473ffffffffffffffffffffffffffffffffffffffff1673ffffffffffffffffffffffffffffffffffffffff163373ffffffffffffffffffffffffffffffffffffffff16145b6104ee57600080fd5b7f000000000000000000000000000000000000000000000000000000000000000073ffffffffffffffffffffffffffffffffffffffff1663dc4a3e956040518163ffffffff1660e01b8152600401602060405180830381865afa158015610559573d6000803e3d6000fd5b505050506040513d601f19601f8201168201806040525081019061057d9190612901565b60ff168160ff16106105c4576040517f08c379a00000000000000000000000000000000000000000000000000000000081526004016105bb906129b1565b60405180910390fd5b80600660006101000a81548160ff021916908360ff1602179055506002600660156101000a81548160ff021916908360058111156106055761060461267f565b5b0217905550610612611d1e565b50565b600260058111156106295761062861267f565b5b600660159054906101000a900460ff16600581111561064b5761064a61267f565b5b1480156106a55750600660019054906101000a900473ffffffffffffffffffffffffffffffffffffffff1673ffffffffffffffffffffffffffffffffffffffff163373ffffffffffffffffffffffffffffffffffffffff16145b6106ae57600080fd5b60007f000000000000000000000000000000000000000000000000000000000000000073ffffffffffffffffffffffffffffffffffffffff1663cf8ffafc8484600660009054906101000a900460ff1660026000600660019054906101000a900473ffffffffffffffffffffffffffffffffffffffff1673ffffffffffffffffffffffffffffffffffffffff1673ffffffffffffffffffffffffffffffffffffffff168152602001908152602001600020546040518563ffffffff1660e01b815260040161077f9493929190612ac0565b602060405180830381865afa15801561079c573d6000803e3d6000fd5b505050506040513d601f19601f820116820180604052508101906107c09190612b38565b905080610802576040517f08c379a00000000000000000000000000000000000000000000000000000000081526004016107f990612bb1565b60405180910390fd5b8160036000600660019054906101000a900473ffffffffffffffffffffffffffffffffffffffff1673ffffffffffffffffffffffffffffffffffffffff1673ffffffffffffffffffffffffffffffffffffffff168152602001908152602001600020600660009054906101000a900460ff1660ff168154811061088857610887612bd1565b5b90600052602060002001819055506001600660156101000a81548160ff021916908360058111156108bc576108bb61267f565b5b0217905550505050565b606060007f000000000000000000000000000000000000000000000000000000000000000073ffffffffffffffffffffffffffffffffffffffff1663dc4a3e956040518163ffffffff1660e01b8152600401602060405180830381865afa158015610935573d6000803e3d6000fd5b505050506040513d601f19601f820116820180604052508101906109599190612901565b60ff1667ffffffffffffffff811115610975576109746121d2565b5b6040519080825280602002602001820160405280156109a35781602001602082028036833780820191505090505b50905060005b7f000000000000000000000000000000000000000000000000000000000000000073ffffffffffffffffffffffffffffffffffffffff1663dc4a3e956040518163ffffffff1660e01b8152600401602060405180830381865afa158015610a14573d6000803e3d6000fd5b505050506040513d601f19601f82011682018060405250810190610a389190612901565b60ff168160ff161015610afc57600460008573ffffffffffffffffffffffffffffffffffffffff1673ffffffffffffffffffffffffffffffffffffffff1681526020019081526020016000208160ff1681548110610a9957610a98612bd1565b5b90600052602060002090602091828204019190069054906101000a900460ff1615610ae9576001828260ff1681518110610ad657610ad5612bd1565b5b6020026020010190151590811515815250505b8080610af490612c2f565b9150506109a9565b5080915050919050565b60026005811115610b1a57610b1961267f565b5b600660159054906101000a900460ff166005811115610b3c57610b3b61267f565b5b148015610b965750600660019054906101000a900473ffffffffffffffffffffffffffffffffffffffff1673ffffffffffffffffffffffffffffffffffffffff163373ffffffffffffffffffffffffffffffffffffffff16145b610b9f57600080fd5b600160046000610bad611d68565b73ffffffffffffffffffffffffffffffffffffffff1673ffffffffffffffffffffffffffffffffffffffff168152602001908152602001600020600660009054906101000a900460ff1660ff1681548110610c0b57610c0a612bd1565b5b90600052602060002090602091828204019190066101000a81548160ff0219169083151502179055508060036000600660019054906101000a900473ffffffffffffffffffffffffffffffffffffffff1673ffffffffffffffffffffffffffffffffffffffff1673ffffffffffffffffffffffffffffffffffffffff168152602001908152602001600020600660009054906101000a900460ff1660ff1681548110610cba57610cb9612bd1565b5b9060005260206000200181905550600073ffffffffffffffffffffffffffffffffffffffff16610ce8611e31565b73ffffffffffffffffffffffffffffffffffffffff1614610d33576003600660156101000a81548160ff02191690836005811115610d2957610d2861267f565b5b0217905550610d5f565b6001600660156101000a81548160ff02191690836005811115610d5957610d5861267f565b5b02179055505b50565b7f000000000000000000000000000000000000000000000000000000000000000081565b6000806000905060005b7f000000000000000000000000000000000000000000000000000000000000000073ffffffffffffffffffffffffffffffffffffffff1663dc4a3e956040518163ffffffff1660e01b8152600401602060405180830381865afa158015610dfb573d6000803e3d6000fd5b505050506040513d601f19601f82011682018060405250810190610e1f9190612901565b60ff168160ff161015610ec857600460008573ffffffffffffffffffffffffffffffffffffffff1673ffffffffffffffffffffffffffffffffffffffff1681526020019081526020016000208160ff1681548110610e8057610e7f612bd1565b5b90600052602060002090602091828204019190069054906101000a900460ff1615610eb557600182610eb29190612c58565b91505b8080610ec090612c2f565b915050610d90565b5080915050919050565b600160009054906101000a900473ffffffffffffffffffffffffffffffffffffffff1681565b610f00611e31565b73ffffffffffffffffffffffffffffffffffffffff163373ffffffffffffffffffffffffffffffffffffffff16148015610f6d575060046005811115610f4957610f4861267f565b5b600660159054906101000a900460ff166005811115610f6b57610f6a61267f565b5b145b610fac576040517f08c379a0000000000000000000000000000000000000000000000000000000008152600401610fa390612cd9565b60405180910390fd5b610fb4611e31565b73ffffffffffffffffffffffffffffffffffffffff166108fc7f000000000000000000000000000000000000000000000000000000000000000073ffffffffffffffffffffffffffffffffffffffff1663faf5625f6040518163ffffffff1660e01b8152600401602060405180830381865afa158015611038573d6000803e3d6000fd5b505050506040513d601f19601f8201168201806040525081019061105c9190612d0e565b60026110689190612d3b565b9081150290604051600060405180830381858888f19350505050158015611093573d6000803e3d6000fd5b506005600660156101000a81548160ff021916908360058111156110ba576110b961267f565b5b0217905550565b600660009054906101000a900460ff1681565b600660019054906101000a900473ffffffffffffffffffffffffffffffffffffffff1681565b60056020528060005260406000206000915054906101000a900460ff1681565b6000600581111561112e5761112d61267f565b5b600660159054906101000a900460ff1660058111156111505761114f61267f565b5b1461115a57600080fd5b7f000000000000000000000000000000000000000000000000000000000000000073ffffffffffffffffffffffffffffffffffffffff1663faf5625f6040518163ffffffff1660e01b8152600401602060405180830381865afa1580156111c5573d6000803e3d6000fd5b505050506040513d601f19601f820116820180604052508101906111e99190612d0e565b341461122a576040517f08c379a000000000000000000000000000000000000000000000000000000000815260040161122190612dc9565b60405180910390fd5b33600160006101000a81548173ffffffffffffffffffffffffffffffffffffffff021916908373ffffffffffffffffffffffffffffffffffffffff1602179055508060026000600160009054906101000a900473ffffffffffffffffffffffffffffffffffffffff1673ffffffffffffffffffffffffffffffffffffffff1673ffffffffffffffffffffffffffffffffffffffff168152602001908152602001600020819055507f000000000000000000000000000000000000000000000000000000000000000073ffffffffffffffffffffffffffffffffffffffff1663dc4a3e956040518163ffffffff1660e01b8152600401602060405180830381865afa15801561133c573d6000803e3d6000fd5b505050506040513d601f19601f820116820180604052508101906113609190612901565b60ff1667ffffffffffffffff81111561137c5761137b6121d2565b5b6040519080825280602002602001820160405280156113aa5781602001602082028036833780820191505090505b5060036000600160009054906101000a900473ffffffffffffffffffffffffffffffffffffffff1673ffffffffffffffffffffffffffffffffffffffff1673ffffffffffffffffffffffffffffffffffffffff168152602001908152602001600020908051906020019061141f929190612015565b507f000000000000000000000000000000000000000000000000000000000000000073ffffffffffffffffffffffffffffffffffffffff1663dc4a3e956040518163ffffffff1660e01b8152600401602060405180830381865afa15801561148b573d6000803e3d6000fd5b505050506040513d601f19601f820116820180604052508101906114af9190612901565b60ff1667ffffffffffffffff8111156114cb576114ca6121d2565b5b6040519080825280602002602001820160405280156114f95781602001602082028036833780820191505090505b5060046000600160009054906101000a900473ffffffffffffffffffffffffffffffffffffffff1673ffffffffffffffffffffffffffffffffffffffff1673ffffffffffffffffffffffffffffffffffffffff168152602001908152602001600020908051906020019061156e929190612062565b506001600660156101000a81548160ff021916908360058111156115955761159461267f565b5b021790555060008054906101000a900473ffffffffffffffffffffffffffffffffffffffff16600660016101000a81548173ffffffffffffffffffffffffffffffffffffffff021916908373ffffffffffffffffffffffffffffffffffffffff16021790555050565b600660159054906101000a900460ff1681565b60008054906101000a900473ffffffffffffffffffffffffffffffffffffffff1673ffffffffffffffffffffffffffffffffffffffff163373ffffffffffffffffffffffffffffffffffffffff161480156116d75750600560008060009054906101000a900473ffffffffffffffffffffffffffffffffffffffff1673ffffffffffffffffffffffffffffffffffffffff1673ffffffffffffffffffffffffffffffffffffffff16815260200190815260200160002060009054906101000a900460ff16155b806117a75750600160009054906101000a900473ffffffffffffffffffffffffffffffffffffffff1673ffffffffffffffffffffffffffffffffffffffff163373ffffffffffffffffffffffffffffffffffffffff161480156117a6575060056000600160009054906101000a900473ffffffffffffffffffffffffffffffffffffffff1673ffffffffffffffffffffffffffffffffffffffff1673ffffffffffffffffffffffffffffffffffffffff16815260200190815260200160002060009054906101000a900460ff16155b5b6117b057600080fd5b80518251146117f4576040517f08c379a00000000000000000000000000000000000000000000000000000000081526004016117eb90612e35565b60405180910390fd5b7f000000000000000000000000000000000000000000000000000000000000000073ffffffffffffffffffffffffffffffffffffffff1663e88834cc836040518263ffffffff1660e01b815260040161184d9190612e55565b600060405180830381865afa15801561186a573d6000803e3d6000fd5b505050506040513d6000823e3d601f19601f820116820180604052508101906118939190612f23565b91506000600360003373ffffffffffffffffffffffffffffffffffffffff1673ffffffffffffffffffffffffffffffffffffffff16815260200190815260200160002080548060200260200160405190810160405280929190818152602001828054801561192057602002820191906000526020600020905b81548152602001906001019080831161190c575b5050505050905060005b83518110156119a057600083828151811061194857611947612bd1565b5b6020026020010151905084828151811061196557611964612bd1565b5b60200260200101518382815181106119805761197f612bd1565b5b60200260200101818152505050808061199890612f6c565b91505061192a565b5060007f000000000000000000000000000000000000000000000000000000000000000073ffffffffffffffffffffffffffffffffffffffff1663fb27e36383600260003373ffffffffffffffffffffffffffffffffffffffff1673ffffffffffffffffffffffffffffffffffffffff168152602001908152602001600020546040518363ffffffff1660e01b8152600401611a3d929190612fb4565b602060405180830381865afa158015611a5a573d6000803e3d6000fd5b505050506040513d601f19601f82011682018060405250810190611a7e9190612b38565b905080611ac0576040517f08c379a0000000000000000000000000000000000000000000000000000000008152600401611ab790613030565b60405180910390fd5b81600360003373ffffffffffffffffffffffffffffffffffffffff1673ffffffffffffffffffffffffffffffffffffffff1681526020019081526020016000209080519060200190611b13929190612015565b506001600560003373ffffffffffffffffffffffffffffffffffffffff1673ffffffffffffffffffffffffffffffffffffffff16815260200190815260200160002060006101000a81548160ff02191690831515021790555060056000600660019054906101000a900473ffffffffffffffffffffffffffffffffffffffff1673ffffffffffffffffffffffffffffffffffffffff1673ffffffffffffffffffffffffffffffffffffffff16815260200190815260200160002060009054906101000a900460ff168015611c37575060056000611bee611d68565b73ffffffffffffffffffffffffffffffffffffffff1673ffffffffffffffffffffffffffffffffffffffff16815260200190815260200160002060009054906101000a900460ff165b15611c68576004600660156101000a81548160ff02191690836005811115611c6257611c6161267f565b5b02179055505b50505050565b60036020528160005260406000208181548110611c8a57600080fd5b90600052602060002001600091509150505481565b60008054906101000a900473ffffffffffffffffffffffffffffffffffffffff1681565b60026020528060005260406000206000915090505481565b60046020528160005260406000208181548110611cf757600080fd5b9060005260206000209060209182820401919006915091509054906101000a900460ff1681565b611d26611d68565b600660016101000a81548173ffffffffffffffffffffffffffffffffffffffff021916908373ffffffffffffffffffffffffffffffffffffffff160217905550565b60008060009054906101000a900473ffffffffffffffffffffffffffffffffffffffff1673ffffffffffffffffffffffffffffffffffffffff16600660019054906101000a900473ffffffffffffffffffffffffffffffffffffffff1673ffffffffffffffffffffffffffffffffffffffff1603611e0a57600160009054906101000a900473ffffffffffffffffffffffffffffffffffffffff169050611e2e565b60008054906101000a900473ffffffffffffffffffffffffffffffffffffffff1690505b90565b60007f000000000000000000000000000000000000000000000000000000000000000073ffffffffffffffffffffffffffffffffffffffff1663f8f658d16040518163ffffffff1660e01b8152600401602060405180830381865afa158015611e9e573d6000803e3d6000fd5b505050506040513d601f19601f82011682018060405250810190611ec29190612901565b60ff16611eee60008054906101000a900473ffffffffffffffffffffffffffffffffffffffff16610d86565b60ff1610611f1e5760008054906101000a900473ffffffffffffffffffffffffffffffffffffffff169050612012565b7f000000000000000000000000000000000000000000000000000000000000000073ffffffffffffffffffffffffffffffffffffffff1663f8f658d16040518163ffffffff1660e01b8152600401602060405180830381865afa158015611f89573d6000803e3d6000fd5b505050506040513d601f19601f82011682018060405250810190611fad9190612901565b60ff16611fdb600160009054906101000a900473ffffffffffffffffffffffffffffffffffffffff16610d86565b60ff161061200d57600160009054906101000a900473ffffffffffffffffffffffffffffffffffffffff169050612012565b600090505b90565b828054828255906000526020600020908101928215612051579160200282015b82811115612050578251825591602001919060010190612035565b5b50905061205e9190612108565b5090565b82805482825590600052602060002090601f016020900481019282156120f75791602002820160005b838211156120c857835183826101000a81548160ff021916908315150217905550926020019260010160208160000104928301926001030261208b565b80156120f55782816101000a81549060ff02191690556001016020816000010492830192600103026120c8565b505b5090506121049190612125565b5090565b5b80821115612121576000816000905550600101612109565b5090565b5b8082111561213e576000816000905550600101612126565b5090565b6000604051905090565b600080fd5b600080fd5b600060ff82169050919050565b61216c81612156565b811461217757600080fd5b50565b60008135905061218981612163565b92915050565b6000602082840312156121a5576121a461214c565b5b60006121b38482850161217a565b91505092915050565b600080fd5b6000601f19601f8301169050919050565b7f4e487b7100000000000000000000000000000000000000000000000000000000600052604160045260246000fd5b61220a826121c1565b810181811067ffffffffffffffff82111715612229576122286121d2565b5b80604052505050565b600061223c612142565b90506122488282612201565b919050565b600067ffffffffffffffff821115612268576122676121d2565b5b602082029050602081019050919050565b600080fd5b6000819050919050565b6122918161227e565b811461229c57600080fd5b50565b6000813590506122ae81612288565b92915050565b60006122c76122c28461224d565b612232565b905080838252602082019050602084028301858111156122ea576122e9612279565b5b835b8181101561231357806122ff888261229f565b8452602084019350506020810190506122ec565b5050509392505050565b600082601f830112612332576123316121bc565b5b81356123428482602086016122b4565b91505092915050565b600080604083850312156123625761236161214c565b5b600083013567ffffffffffffffff8111156123805761237f612151565b5b61238c8582860161231d565b925050602061239d8582860161229f565b9150509250929050565b600073ffffffffffffffffffffffffffffffffffffffff82169050919050565b60006123d2826123a7565b9050919050565b6123e2816123c7565b81146123ed57600080fd5b50565b6000813590506123ff816123d9565b92915050565b60006020828403121561241b5761241a61214c565b5b6000612429848285016123f0565b91505092915050565b600081519050919050565b600082825260208201905092915050565b6000819050602082019050919050565b60008115159050919050565b6124738161245e565b82525050565b6000612485838361246a565b60208301905092915050565b6000602082019050919050565b60006124a982612432565b6124b3818561243d565b93506124be8361244e565b8060005b838110156124ef5781516124d68882612479565b97506124e183612491565b9250506001810190506124c2565b5085935050505092915050565b60006020820190508181036000830152612516818461249e565b905092915050565b6000602082840312156125345761253361214c565b5b60006125428482850161229f565b91505092915050565b6000819050919050565b600061257061256b612566846123a7565b61254b565b6123a7565b9050919050565b600061258282612555565b9050919050565b600061259482612577565b9050919050565b6125a481612589565b82525050565b60006020820190506125bf600083018461259b565b92915050565b6125ce81612156565b82525050565b60006020820190506125e960008301846125c5565b92915050565b60006125fa826123a7565b9050919050565b61260a816125ef565b82525050565b60006020820190506126256000830184612601565b92915050565b612634816123c7565b82525050565b600060208201905061264f600083018461262b565b92915050565b61265e8161245e565b82525050565b60006020820190506126796000830184612655565b92915050565b7f4e487b7100000000000000000000000000000000000000000000000000000000600052602160045260246000fd5b600681106126bf576126be61267f565b5b50565b60008190506126d0826126ae565b919050565b60006126e0826126c2565b9050919050565b6126f0816126d5565b82525050565b600060208201905061270b60008301846126e7565b92915050565b600067ffffffffffffffff82111561272c5761272b6121d2565b5b602082029050602081019050919050565b6000819050919050565b6127508161273d565b811461275b57600080fd5b50565b60008135905061276d81612747565b92915050565b600061278661278184612711565b612232565b905080838252602082019050602084028301858111156127a9576127a8612279565b5b835b818110156127d257806127be888261275e565b8452602084019350506020810190506127ab565b5050509392505050565b600082601f8301126127f1576127f06121bc565b5b8135612801848260208601612773565b91505092915050565b600080604083850312156128215761282061214c565b5b600083013567ffffffffffffffff81111561283f5761283e612151565b5b61284b8582860161231d565b925050602083013567ffffffffffffffff81111561286c5761286b612151565b5b612878858286016127dc565b9150509250929050565b600080604083850312156128995761289861214c565b5b60006128a7858286016123f0565b92505060206128b88582860161275e565b9150509250929050565b6128cb8161227e565b82525050565b60006020820190506128e660008301846128c2565b92915050565b6000815190506128fb81612163565b92915050565b6000602082840312156129175761291661214c565b5b6000612925848285016128ec565b91505092915050565b600082825260208201905092915050565b7f416e2061747461636b206d7573742062652077697468696e20626f617264207360008201527f697a650000000000000000000000000000000000000000000000000000000000602082015250565b600061299b60238361292e565b91506129a68261293f565b604082019050919050565b600060208201905081810360008301526129ca8161298e565b9050919050565b600081519050919050565b600082825260208201905092915050565b6000819050602082019050919050565b612a068161227e565b82525050565b6000612a1883836129fd565b60208301905092915050565b6000602082019050919050565b6000612a3c826129d1565b612a4681856129dc565b9350612a51836129ed565b8060005b83811015612a82578151612a698882612a0c565b9750612a7483612a24565b925050600181019050612a55565b5085935050505092915050565b6000612aaa612aa5612aa084612156565b61254b565b61273d565b9050919050565b612aba81612a8f565b82525050565b60006080820190508181036000830152612ada8187612a31565b9050612ae960208301866128c2565b612af66040830185612ab1565b612b0360608301846128c2565b95945050505050565b612b158161245e565b8114612b2057600080fd5b50565b600081519050612b3281612b0c565b92915050565b600060208284031215612b4e57612b4d61214c565b5b6000612b5c84828501612b23565b91505092915050565b7f496e76616c6964206e6f64657300000000000000000000000000000000000000600082015250565b6000612b9b600d8361292e565b9150612ba682612b65565b602082019050919050565b60006020820190508181036000830152612bca81612b8e565b9050919050565b7f4e487b7100000000000000000000000000000000000000000000000000000000600052603260045260246000fd5b7f4e487b7100000000000000000000000000000000000000000000000000000000600052601160045260246000fd5b6000612c3a82612156565b915060ff8203612c4d57612c4c612c00565b5b600182019050919050565b6000612c6382612156565b9150612c6e83612156565b9250828201905060ff811115612c8757612c86612c00565b5b92915050565b7f55736572206973206e6f7420612077696e6e6572000000000000000000000000600082015250565b6000612cc360148361292e565b9150612cce82612c8d565b602082019050919050565b60006020820190508181036000830152612cf281612cb6565b9050919050565b600081519050612d0881612747565b92915050565b600060208284031215612d2457612d2361214c565b5b6000612d3284828501612cf9565b91505092915050565b6000612d468261273d565b9150612d518361273d565b9250828202612d5f8161273d565b91508282048414831517612d7657612d75612c00565b5b5092915050565b7f496e76616c6964207374616b656420616d6f756e740000000000000000000000600082015250565b6000612db360158361292e565b9150612dbe82612d7d565b602082019050919050565b60006020820190508181036000830152612de281612da6565b9050919050565b7f426f746820617272617973206d7573742062652073616d65206c656e67746800600082015250565b6000612e1f601f8361292e565b9150612e2a82612de9565b602082019050919050565b60006020820190508181036000830152612e4e81612e12565b9050919050565b60006020820190508181036000830152612e6f8184612a31565b905092915050565b600081519050612e8681612288565b92915050565b6000612e9f612e9a8461224d565b612232565b90508083825260208201905060208402830185811115612ec257612ec1612279565b5b835b81811015612eeb5780612ed78882612e77565b845260208401935050602081019050612ec4565b5050509392505050565b600082601f830112612f0a57612f096121bc565b5b8151612f1a848260208601612e8c565b91505092915050565b600060208284031215612f3957612f3861214c565b5b600082015167ffffffffffffffff811115612f5757612f56612151565b5b612f6384828501612ef5565b91505092915050565b6000612f778261273d565b91507fffffffffffffffffffffffffffffffffffffffffffffffffffffffffffffffff8203612fa957612fa8612c00565b5b600182019050919050565b60006040820190508181036000830152612fce8185612a31565b9050612fdd60208301846128c2565b9392505050565b7f426f61726420686173206e6f74206265656e2076657269666965640000000000600082015250565b600061301a601b8361292e565b915061302582612fe4565b602082019050919050565b600060208201905081810360008301526130498161300d565b905091905056fea264697066735822122012ca0ad032a40962c7c4d0fbb63b587e93fae88b5a2bbdffcb9e965caf127cf364736f6c63430008130033a2646970667358221220adb9317fc76b8c779e22c8d5c92220553372075a04a6acf440099af53ea2fd1064736f6c63430008130033",
  "linkReferences": {},
  "deployedLinkReferences": {}
}