{
  "_format": "hh-sol-artifact-1",
  "contractName": "MerkleTreeValidator",
  "sourceName": "src/utils/MerkleTreeValidator.sol",
  "abi": [
    {
      "inputs": [],
      "name": "BOARD_SIZE",
      "outputs": [
        {
          "internalType": "uint8",
          "name": "",
          "type": "uint8"
        }
      ],
      "stateMutability": "view",
      "type": "function"
    },
    {
      "inputs": [],
      "name": "SHIPS_AMOUNT",
      "outputs": [
        {
          "internalType": "uint8",
          "name": "",
          "type": "uint8"
        }
      ],
      "stateMutability": "view",
      "type": "function"
    },
    {
      "inputs": [],
      "name": "STAKE_AMOUNT",
      "outputs": [
        {
          "internalType": "uint256",
          "name": "",
          "type": "uint256"
        }
      ],
      "stateMutability": "view",
      "type": "function"
    },
    {
      "inputs": [
        {
          "internalType": "uint8[]",
          "name": "shipsPositions",
          "type": "uint8[]"
        },
        {
          "internalType": "uint256",
          "name": "randomValue",
          "type": "uint256"
        }
      ],
      "name": "generateBoard",
      "outputs": [
        {
          "internalType": "bytes32[]",
          "name": "",
          "type": "bytes32[]"
        }
      ],
      "stateMutability": "pure",
      "type": "function"
    },
    {
      "inputs": [
        {
          "internalType": "bytes32[]",
          "name": "nodes",
          "type": "bytes32[]"
        },
        {
          "internalType": "uint256",
          "name": "index",
          "type": "uint256"
        }
      ],
      "name": "getNodesToVerification",
      "outputs": [
        {
          "internalType": "bytes32[]",
          "name": "",
          "type": "bytes32[]"
        }
      ],
      "stateMutability": "pure",
      "type": "function"
    },
    {
      "inputs": [
        {
          "internalType": "bytes32[]",
          "name": "nodes",
          "type": "bytes32[]"
        }
      ],
      "name": "getTreeRootHash",
      "outputs": [
        {
          "internalType": "bytes32",
          "name": "",
          "type": "bytes32"
        }
      ],
      "stateMutability": "pure",
      "type": "function"
    },
    {
      "inputs": [
        {
          "internalType": "bytes32[]",
          "name": "board",
          "type": "bytes32[]"
        }
      ],
      "name": "hashBoard",
      "outputs": [
        {
          "internalType": "bytes32[]",
          "name": "",
          "type": "bytes32[]"
        }
      ],
      "stateMutability": "pure",
      "type": "function"
    },
    {
      "inputs": [
        {
          "internalType": "uint256",
          "name": "x",
          "type": "uint256"
        }
      ],
      "name": "log2",
      "outputs": [
        {
          "internalType": "uint256",
          "name": "y",
          "type": "uint256"
        }
      ],
      "stateMutability": "pure",
      "type": "function"
    },
    {
      "inputs": [
        {
          "internalType": "bytes32[]",
          "name": "nodes",
          "type": "bytes32[]"
        },
        {
          "internalType": "bytes32",
          "name": "leaf",
          "type": "bytes32"
        },
        {
          "internalType": "uint256",
          "name": "index",
          "type": "uint256"
        },
        {
          "internalType": "bytes32",
          "name": "root",
          "type": "bytes32"
        }
      ],
      "name": "verifyNode",
      "outputs": [
        {
          "internalType": "bool",
          "name": "",
          "type": "bool"
        }
      ],
      "stateMutability": "pure",
      "type": "function"
    },
    {
      "inputs": [
        {
          "internalType": "bytes32[]",
          "name": "nodes",
          "type": "bytes32[]"
        },
        {
          "internalType": "bytes32",
          "name": "root",
          "type": "bytes32"
        }
      ],
      "name": "verifyTree",
      "outputs": [
        {
          "internalType": "bool",
          "name": "",
          "type": "bool"
        }
      ],
      "stateMutability": "pure",
      "type": "function"
    }
  ],
  "bytecode": "0x608060405234801561001057600080fd5b506115eb806100206000396000f3fe608060405234801561001057600080fd5b506004361061009e5760003560e01c8063e88834cc11610066578063e88834cc14610181578063f6269b1b146101b1578063f8f658d1146101e1578063faf5625f146101ff578063fb27e3631461021d5761009e565b806326420fad146100a35780635456bf13146100d357806371e5447914610103578063cf8ffafc14610133578063dc4a3e9514610163575b600080fd5b6100bd60048036038101906100b89190610cf0565b61024d565b6040516100ca9190610d48565b60405180910390f35b6100ed60048036038101906100e89190610d99565b610347565b6040516100fa9190610dd5565b60405180910390f35b61011d60048036038101906101189190610eec565b610573565b60405161012a9190611006565b60405180910390f35b61014d60048036038101906101489190611028565b610793565b60405161015a91906110c6565b60405180910390f35b61016b61083c565b60405161017891906110f0565b60405180910390f35b61019b60048036038101906101969190610cf0565b610841565b6040516101a89190611006565b60405180910390f35b6101cb60048036038101906101c6919061110b565b61091a565b6040516101d89190611006565b60405180910390f35b6101e9610b17565b6040516101f691906110f0565b60405180910390f35b610207610b1c565b6040516102149190610dd5565b60405180910390f35b61023760048036038101906102329190611167565b610b21565b60405161024491906110c6565b60405180910390f35b6000808290506000600284516102639190611221565b90505b600081146103225760005b8181101561030d576102db8382600261028a9190611252565b8151811061029b5761029a611294565b5b60200260200101518460018460026102b39190611252565b6102bd91906112c3565b815181106102ce576102cd611294565b5b6020026020010151610b36565b8382815181106102ee576102ed611294565b5b6020026020010181815250508080610305906112f7565b915050610271565b5060028161031b9190611221565b9050610266565b8160008151811061033657610335611294565b5b602002602001015192505050919050565b60008160018303925060028304831792506004830483179250601083048317925061010083048317925062010000830483179250640100000000830483179250680100000000000000008304831792507001000000000000000000000000000000008304831792506001830192506040517ff8f9cbfae6cc78fbefe7cdc3a1793dfcf4f0e8bbd8cec470b6a28a7a5a3e1efd81527ff5ecf1b3e9debc68e1d9cfabc5997135bfb7a7a3938b7b606b5b4b3f2f1f0ffe60208201527ff6e4ed9ff2d6b458eadcdf97bd91692de2d4da8fd2d0ac50c6ae9a827252361660408201527fc8c0b887b0a8a4489c948c7f847c6125746c645c544c444038302820181008ff60608201527ff7cae577eec2a03cf3bad76fb589591debb2dd67e0aa9834bea6925f6a4a2e0e60808201527fe39ed557db96902cd38ed14fad815115c786af479b7e8324736353433727170760a08201527fc976c13bb96e881cb166a933a55e490d9d56952b8d4e801485467d236242260660c08201527f753a6d1b65325d0c552a4d1345224105391a310b29122104190a11030902010060e082015261010081016040527e818283848586878898a8b8c8d8e8f929395969799a9b9d9e9faaeb6bedeeff7f01000000000000000000000000000000000000000000000000000000000000008082870204818160ff038501510495507f8000000000000000000000000000000000000000000000000000000000000000851161010002860195505050505050919050565b6060600460ff16835110156105bd576040517f08c379a00000000000000000000000000000000000000000000000000000000081526004016105b4906113c2565b60405180910390fd5b6000601060ff1667ffffffffffffffff8111156105dd576105dc610b77565b5b60405190808252806020026020018201604052801561060b5781602001602082028036833780820191505090505b5090506000805b601060ff168160ff1610156107875760006002807fffffffffffffffffffffffffffffffffffffffffffffffffffffffffffffffff888560405160200161065a9291906113e2565b6040516020818303038152906040528051906020012060001c61067d919061140b565b6106879190611221565b6106919190611252565b9050868360ff16815181106106a9576106a8611294565b5b602002602001015160ff168260ff160361071b57806040516020016106ce919061145d565b6040516020818303038152906040526106e6906114b5565b848360ff16815181106106fc576106fb611294565b5b60200260200101818152505082806107139061151c565b935050610773565b6001816107289190611545565b604051602001610738919061145d565b604051602081830303815290604052610750906114b5565b848360ff168151811061076657610765611294565b5b6020026020010181815250505b50808061077f9061151c565b915050610612565b50819250505092915050565b60008084905060005b865181101561082d5760006002866107b4919061140b565b036107e4576107dd828883815181106107d0576107cf611294565b5b6020026020010151610b36565b915061080b565b6108088782815181106107fa576107f9611294565b5b602002602001015183610b36565b91505b6002856108189190611221565b94508080610825906112f7565b91505061079c565b50828114915050949350505050565b601081565b60606000825167ffffffffffffffff8111156108605761085f610b77565b5b60405190808252806020026020018201604052801561088e5781602001602082028036833780820191505090505b50905060005b8351811015610910578381815181106108b0576108af611294565b5b60200260200101516040516020016108c8919061159a565b604051602081830303815290604052805190602001208282815181106108f1576108f0611294565b5b6020026020010181815250508080610908906112f7565b915050610894565b5080915050919050565b606060006109288451610347565b67ffffffffffffffff81111561094157610940610b77565b5b60405190808252806020026020018201604052801561096f5781602001602082028036833780820191505090505b5090506000808590506000600287516109889190611221565b90505b60008114610b0a5760006002876109a2919061140b565b036109f257816001876109b591906112c3565b815181106109c6576109c5611294565b5b60200260200101518484815181106109e1576109e0611294565b5b602002602001018181525050610a39565b81600187610a009190611545565b81518110610a1157610a10611294565b5b6020026020010151848481518110610a2c57610a2b611294565b5b6020026020010181815250505b8280610a44906112f7565b935050600286610a549190611221565b955060005b81811015610af557610ac383826002610a729190611252565b81518110610a8357610a82611294565b5b6020026020010151846001846002610a9b9190611252565b610aa591906112c3565b81518110610ab657610ab5611294565b5b6020026020010151610b36565b838281518110610ad657610ad5611294565b5b6020026020010181815250508080610aed906112f7565b915050610a59565b50600281610b039190611221565b905061098b565b8394505050505092915050565b600481565b600a81565b600081610b2d8461024d565b14905092915050565b600082600052816020526040600020905092915050565b6000604051905090565b600080fd5b600080fd5b600080fd5b6000601f19601f8301169050919050565b7f4e487b7100000000000000000000000000000000000000000000000000000000600052604160045260246000fd5b610baf82610b66565b810181811067ffffffffffffffff82111715610bce57610bcd610b77565b5b80604052505050565b6000610be1610b4d565b9050610bed8282610ba6565b919050565b600067ffffffffffffffff821115610c0d57610c0c610b77565b5b602082029050602081019050919050565b600080fd5b6000819050919050565b610c3681610c23565b8114610c4157600080fd5b50565b600081359050610c5381610c2d565b92915050565b6000610c6c610c6784610bf2565b610bd7565b90508083825260208201905060208402830185811115610c8f57610c8e610c1e565b5b835b81811015610cb85780610ca48882610c44565b845260208401935050602081019050610c91565b5050509392505050565b600082601f830112610cd757610cd6610b61565b5b8135610ce7848260208601610c59565b91505092915050565b600060208284031215610d0657610d05610b57565b5b600082013567ffffffffffffffff811115610d2457610d23610b5c565b5b610d3084828501610cc2565b91505092915050565b610d4281610c23565b82525050565b6000602082019050610d5d6000830184610d39565b92915050565b6000819050919050565b610d7681610d63565b8114610d8157600080fd5b50565b600081359050610d9381610d6d565b92915050565b600060208284031215610daf57610dae610b57565b5b6000610dbd84828501610d84565b91505092915050565b610dcf81610d63565b82525050565b6000602082019050610dea6000830184610dc6565b92915050565b600067ffffffffffffffff821115610e0b57610e0a610b77565b5b602082029050602081019050919050565b600060ff82169050919050565b610e3281610e1c565b8114610e3d57600080fd5b50565b600081359050610e4f81610e29565b92915050565b6000610e68610e6384610df0565b610bd7565b90508083825260208201905060208402830185811115610e8b57610e8a610c1e565b5b835b81811015610eb45780610ea08882610e40565b845260208401935050602081019050610e8d565b5050509392505050565b600082601f830112610ed357610ed2610b61565b5b8135610ee3848260208601610e55565b91505092915050565b60008060408385031215610f0357610f02610b57565b5b600083013567ffffffffffffffff811115610f2157610f20610b5c565b5b610f2d85828601610ebe565b9250506020610f3e85828601610d84565b9150509250929050565b600081519050919050565b600082825260208201905092915050565b6000819050602082019050919050565b610f7d81610c23565b82525050565b6000610f8f8383610f74565b60208301905092915050565b6000602082019050919050565b6000610fb382610f48565b610fbd8185610f53565b9350610fc883610f64565b8060005b83811015610ff9578151610fe08882610f83565b9750610feb83610f9b565b925050600181019050610fcc565b5085935050505092915050565b600060208201905081810360008301526110208184610fa8565b905092915050565b6000806000806080858703121561104257611041610b57565b5b600085013567ffffffffffffffff8111156110605761105f610b5c565b5b61106c87828801610cc2565b945050602061107d87828801610c44565b935050604061108e87828801610d84565b925050606061109f87828801610c44565b91505092959194509250565b60008115159050919050565b6110c0816110ab565b82525050565b60006020820190506110db60008301846110b7565b92915050565b6110ea81610e1c565b82525050565b600060208201905061110560008301846110e1565b92915050565b6000806040838503121561112257611121610b57565b5b600083013567ffffffffffffffff8111156111405761113f610b5c565b5b61114c85828601610cc2565b925050602061115d85828601610d84565b9150509250929050565b6000806040838503121561117e5761117d610b57565b5b600083013567ffffffffffffffff81111561119c5761119b610b5c565b5b6111a885828601610cc2565b92505060206111b985828601610c44565b9150509250929050565b7f4e487b7100000000000000000000000000000000000000000000000000000000600052601260045260246000fd5b7f4e487b7100000000000000000000000000000000000000000000000000000000600052601160045260246000fd5b600061122c82610d63565b915061123783610d63565b925082611247576112466111c3565b5b828204905092915050565b600061125d82610d63565b915061126883610d63565b925082820261127681610d63565b9150828204841483151761128d5761128c6111f2565b5b5092915050565b7f4e487b7100000000000000000000000000000000000000000000000000000000600052603260045260246000fd5b60006112ce82610d63565b91506112d983610d63565b92508282019050808211156112f1576112f06111f2565b5b92915050565b600061130282610d63565b91507fffffffffffffffffffffffffffffffffffffffffffffffffffffffffffffffff8203611334576113336111f2565b5b600182019050919050565b600082825260208201905092915050565b7f596f75206e65656420746f20706c616365206174206c6561737420342073686960008201527f7073000000000000000000000000000000000000000000000000000000000000602082015250565b60006113ac60228361133f565b91506113b782611350565b604082019050919050565b600060208201905081810360008301526113db8161139f565b9050919050565b60006040820190506113f76000830185610dc6565b61140460208301846110e1565b9392505050565b600061141682610d63565b915061142183610d63565b925082611431576114306111c3565b5b828206905092915050565b6000819050919050565b61145761145282610d63565b61143c565b82525050565b60006114698284611446565b60208201915081905092915050565b600081519050919050565b6000819050602082019050919050565b600061149f8251610c23565b80915050919050565b600082821b905092915050565b60006114c082611478565b826114ca84611483565b90506114d581611493565b92506020821015611515576115107fffffffffffffffffffffffffffffffffffffffffffffffffffffffffffffffff836020036008026114a8565b831692505b5050919050565b600061152782610e1c565b915060ff820361153a576115396111f2565b5b600182019050919050565b600061155082610d63565b915061155b83610d63565b9250828203905081811115611573576115726111f2565b5b92915050565b6000819050919050565b61159461158f82610c23565b611579565b82525050565b60006115a68284611583565b6020820191508190509291505056fea2646970667358221220f42f674bfc563d0a3de9b9847dcf39c4265654dcfb43c59ac9c8b945c067032464736f6c63430008130033",
  "linkReferences": {},
  "deployedLinkReferences": {}
}